S1230100196907270A2064652000656E65726F006665627265726F006D61727A6F0061622E
S123012072696C006D61796F006A756E696F006A756C696F0061676F73746F00736570742D
S123014069656D627265006F637475627265006E6F7669656D6272650064696369656D629F
S1230160726500010A01100118011E01240129012F0135013C0147014F0159A6802705B763
S1230180FF0020F7398E0163F60102C1102D02C0065A58AE85BD017B39C1012718B6010349
S12301A0444444448B30B7FF00B60103840F8B30B7FF00202CFC0100444444448B30B7FF32
S12301C000FC0100840F8B30B7FF00FC010054545454CB30F7FF00FC0100C40FCB30F7FF1B
S12301E000398E0105BD017B39C600BD0199BD01E2BD0185BD01E2C601BD019939BD01E91E
S10702004FB7FF01F0
S105FFFE01FDFF
S9030000FC
